S01B0000536D617274536166657479446F6F724C6F636B2E7372656379
S113000045C0000061C000005FC000005DC000008A
S11300105BC0000059C0000057C0000055C000007C
S113002053C0000051C00000DCC200004DC00000FD
S11300304BC0000049C0000047C0000045C000009C
S113004043C0000041C00000DBC500003DC000000B
S11300503BC0000039C0000037C0000035C00000BC
S113006033C0000031C000002FC000002DC00000CC
S11300702BC0000029C0000027C0000025C00000DC
S113008023C0000021C000001FC0000011241FBEB7
S1130090CFEFD0E1DEBFCDBF11E0A0E0B1E0E0E101
S11300A0F5E100E00BBF02C007900D92AA3CB10736
S11300B0D9F722E0AAECB1E001C01D92A634B20740
S11300C0E1F731D60C94860A9BCFCF93C62F98B311
S11300D09E7F98BB90E0880F991F8E770AD28C2F51
S11300E008D288B3816088BBCF91089598B39E7F6E
S11300F098BB90E0880F991F8E778068FAD180E0D2
S1130100F8D198B3916098BB08956FE081E0DDCF9A
S11301100895FBDF6DE88AE2D8DF6EE38BE2D5DF7A
S11301206EE18CE2D2DF60E08DE2CFDF60E485E156
S1130130CCDF6DE381E1C9DF84E1D8DF982F9370D0
S113014021F4682F636084E1C0CF08954F925F92D9
S11301506F927F928F929F92AF92BF92CF92DF92D3
S1130160EF92FF920F931F93CF93DF93D82F7B01CE
S1130170C42F59018C3029F08E3061F0912C812CE0
S113018010C00F2EF0E39F2EF02D0F2EF7E78F2EC9
S1130190F02D07C06894992494F80F2EF2E18F2E65
S11301A0F02D84E0A3DF682F6F7784E08EDF8AE090
S11301B09DDF682F60688AE088DF60E081E085DF8A
S11301C0412C512C32010BC0F701E40DF51D608167
S11301D089E07BDF8FEF481A580A680A780A8C2F67
S11301E090E0A0E0B0E0481659066A067B0660F38A
S11301F06D2F81E06ADFDC3031F48DE077DF682F2A
S113020060688DE062DF0F2EF0EDCF2EF7E0DF2E79
S1130210E12CF12CF02D84E069DFC82FE1E0CE1A47
S1130220D108E108F10829F080FD03C0892D8C2351
S113023091F38DE05BDF682F6F778DE046DFCD288B
S1130240CE28CF2809F45CC086E050DF8B7109F01A
S113025059C0C821C0FD02C0C1E001C0C2E0DC3009
S113026009F051C08AE042DFD82F8CE03FDF282F0D
S11302702770A9F08D2F90E00197880F991F880FA0
S1130280991F880F991F820F911D092E000CAA0B2C
S1130290BB0BF80180839183A283B38311C08D2F9C
S11302A090E0880F991F880F991F880F991F092EB6
S11302B0000CAA0BBB0BF80180839183A283B38348
S11302C0D11101C0D1E0D13108F0D0E1C12CD12C41
S11302D076010CC085010C0D1D1D89E007DFF801B6
S11302E08083FFEFCF1ADF0AEF0AFF0A8D2F90E019
S11302F0A0E0B0E0C816D906EA06FB0658F303C02E
S1130300C3E001C0C3E08C2FDF91CF911F910F9107
S1130310FF90EF90DF90CF90BF90AF909F908F9021
S11303207F906F905F904F900895EF92FF920F939C
S11303301F93CF93DF9300D000D0CDB7DEB7182F33
S11303407B0167E08DE0C1DEF70110838E010F5F52
S11303501F4F970141E0B7018CE0F8DE813051F482
S113036049815A816B817C81403151056105710558
S113037019F403C083E001C083E00F900F900F9045
S11303800F90DF91CF911F910F91FF90EF900895FF
S1130390EF92FF920F931F93CF93DF9300D000D07F
S11303A0CDB7DEB77C0160E08DE08FDE83E9F70135
S11303B0808380E281838E010F5F1F4F970142E0AB
S11303C0B7018CE0C3DE813091F407C0F701E90F77
S11303D0F11D308123279F5F02C020E090E094301C
S11303E0A8F3F701E90FF11D9081291383E00F9021
S11303F00F900F900F90DF91CF911F910F91FF906D
S1130400EF9008951092900087E689B9E5E9F0E04D
S11304108081866080838081877F808380818F7CD8
S1130420808388E18AB98AB180688AB908955D9B1E
S1130430FECF8CB90895CF93DF93EC0102C02196CF
S1130440F6DF88818111FBCFDF91CF9108955F9B07
S1130450FECF8CB108950F931F93CF93DF938C013C
S1130460D62F8AB18F778AB9C0E00AC0F0DF8D3009
S113047079F08A3069F0F801EC0FF11D8083CF5FC9
S11304802C2F30E08D2F90E001972817390774F353
S1130490F801EC0FF11D10828AB180688AB9DF91EE
S11304A0CF911F910F91089587E086B9089587B978
S11304B086B1806C86B9349BFECF34B185B190E0AF
S11304C0982F882726B1206126B926B12F7726B91F
S11304D0830F911D089583E085BD86E084BD87B7B1
S11304E0806487BF089587B3876087BB81E58DB932
S11304F008958FB9779BFECF8FB1089587B380613C
S113050087BB8DE583BF12BE80EF81BF08958DE662
S113051083BF81E08093CC0108958DE583BF109261
S1130520CC0108958AB18F778AB991DF813368F05D
S1130530833318F0833329F008C010920001E7DFF9
S113054004C081E080930001E8DF8AB180688AB941
S113055008959A9B02C080E0089581E0089587B3CE
S1130560806287BB8FB582608FBD8EB588618EBD7A
S113057080E49CE997BD86BD8FB580688FBD0895E2
S11305808EB582608EBD80ED97E09BBD8ABD81E013
S1130590809300011092E3011092E2012FEF85EAAB
S11305A09EE0215080409040E1F700C000008EB5ED
S11305B08D7F8EBD08958EB582608EBD8CEC90E1EA
S11305C09BBD8ABD109200012FEF85EA9EE0215069
S11305D080409040E1F700C000008EB58D7F8EBD55
S11305E008951F920F920FB60F9211240BB60F921B
S11305F02F933F934F935F936F937F938F939F9327
S1130600AF93BF93EF93FF9386E084BDA2DF88236B
S113061009F43CC01092DF011092DE0180910001C8
S1130620882389F08091E2019091E30101969093EF
S1130630E3018093E2018091E2019091E301883B20
S11306409B4008F0B8DF9B991CC08091E001909119
S1130650E10101969093E1018093E0018091E00132
S11306609091E10188389341A0F189E091E0E3DEC3
S11306704EDF86DF109200011092E1011092E0013A
S113068028C01092E1011092E00123C01092E3010E
S11306901092E2011092E1011092E00180910001B8
S11306A08823B9F08091DE019091DF010196909347
S11306B0DF018093DE018091DE019091DF018838B3
S11306C0934138F081E191E0B6DE1092DF0110929F
S11306D0DE012091E6013091E7018091E4019091DF
S11306E0E5012817390761F01092DD011092DC0151
S11306F08091E6019091E7019093E5018093E401F4
S11307008091E6019091E701892BC1F08091DC0191
S11307109091DD0101969093DD018093DC0180913D
S1130720DC019091DD018838934140F01092E7019B
S11307301092E6011092E5011092E401FF91EF910D
S1130740BF91AF919F918F917F916F915F914F91E5
S11307503F912F910F900BBE0F900FBE0F901F90E3
S11307601895DC0120E030E00CC0FB01E20FF31F20
S11307705081FD01E20FF31F9081591309C02F5FCF
S11307803F4FE42FF0E02E173F077CF381E00895FC
S113079080E008950F931F93CF93DF93CDB7DEB717
S11307A060970FB6F894DEBF0FBECDBF8C01BE01BB
S11307B06F5F7F4F82E5B9DDCE010196E9DD8130BF
S11307C009F042C089819A81AB81BC818093E801A0
S11307D09093E901A093EA01B093EB0144E068EE41
S11307E071E08DEE91E0BDDF882319F01092CA010B
S11307F00CC089819A81F801918380838B819C81CB
S11308009383828381E08093CA018091E80190916F
S1130810E901A091EA01B091EB018093ED0190937D
S1130820EE01A093EF01B093F001BE016F5F7F4F23
S113083082E57BDDCE010196ABDD0DC0FC01E35109
S1130840FE4F1082019602C080E090E08430910552
S1130850ACF31092CA0160960FB6F894DEBF0FBED7
S1130860CDBFDF91CF911F910F910895CF93DF9367
S1130870C0E0D0E00FC021E12C9FC0012D9F900D5E
S1130880112444E06DEC71E082509E4F6ADF8111C7
S113089007C02196C530D10574F385E090E002C00D
S11308A08C2F9D2FDF91CF9108950F931F93CF939A
S11308B0DF938C01C0E0D0E00EC021E12C9FC00189
S11308C02D9F900D112444E0B80182509E4F49DFC2
S11308D081110AC02196C530D1057CF38BE391E0E8
S11308E0AADD85E090E002C08C2F9D2FDF91CF918F
S11308F01F910F9108950F931F93CF93DF93CDB75B
S1130900DEB7C456D1090FB6F894DEBF0FBECDBF13
S113091021E1AC01249FC001259F900D1124FC010D
S1130920EF50FE4F50894785368525858D509E4F63
S1130930652F6F701F926F9352955F701F925F9334
S1130940542F5F701F925F9342954F701F924F9385
S1130950432F4F701F924F9332953F701F923F93D6
S1130960322F3F701F923F9322952F701F922F9327
S11309709F938F9381818F9380818F9389E591E0F9
S11309809F938F938E010F5F1F4F1F930F93CAD2B4
S1130990C80151DD0FB6F894DEBF0FBECDBFCC59F0
S11309A0DF4F0FB6F894DEBF0FBECDBFDF91CF91FE
S11309B01F910F910895CF92DF92EF92FF920F93C0
S11309C01F93CF93DF938C016B017A01C0E0D0E0D9
S11309D01CC0F601EC0FFD1F608161110CC02FE0FB
S11309E0209FC001219F900D11248C0F9D1F7DD548
S11309F0C0E0D0E01DC02FE0209FC001219F900DDA
S1130A0011248C0F9D1F71D52196CB30D1050CF389
S1130A10EFCFF701EC0FFD1F2FE0209FC001219FB6
S1130A20900D11240B9660818C0F9D1F5ED521962D
S1130A30C430D10574F3DF91CF911F910F91FF90D2
S1130A40EF90DF90CF900895CF92DF92EF92FF92D4
S1130A500F931F93CF93DF938C016B017A01C0E056
S1130A60D0E016C02FE0209FC001219F900D1124DB
S1130A708C0F9D1F32D5811106C0CC0DDD1D18824F
S1130A80C0E0D0E019C0F601EC0FFD1F8083219671
S1130A90CB30D1053CF3F4CF6701CC0EDD1E2FE043
S1130AA0209FC001219F900D11240B968C0F9D1F38
S1130AB014D5F60180832196C430D1056CF3DF91FF
S1130AC0CF911F910F91FF90EF90DF90CF900895F9
S1130AD021E1289FB001299F700D1124FB01EF50E3
S1130AE0FE4F91838083AB0142505E4F6D507E4F29
S1130AF0ABCF0895CF93DF934DEC51E061ED71E0FE
S1130B0080E090E058DF4DEC51E061ED71E081E070
S1130B1090E051DF4DEC51E061ED71E082E090E056
S1130B204ADF4DEC51E061ED71E083E090E043DF9A
S1130B304DEC51E061ED71E084E090E03CDFC0E019
S1130B40D0E003C0CE01C4DF2196C530D105D4F373
S1130B50DF91CF910895EF92FF920F931F93CF935C
S1130B60DF93CDB7DEB72B970FB6F894DEBF0FBE79
S1130B70CDBF7C017BDE8C01059734F581E791E0E4
S1130B805ADC6BE0CE01019666DCA701BE016F5F03
S1130B907F4FC80110DFC8019BDF00E010E004C0F4
S1130BA0C801A9DE0F5F1F4F05301105CCF32FEFED
S1130BB083EC99E0215080409040E1F700C00000B0
S1130BC088E891E038DC03C080EA91E034DC2B96BD
S1130BD00FB6F894DEBF0FBECDBFDF91CF911F914A
S1130BE00F91FF90EF900895853091053CF44DEC02
S1130BF051E061ED71E0DFDE81E0089580E0089569
S1130C001F920F920FB60F9211240BB60F920F93EF
S1130C101F932F933F934F935F936F937F938F9380
S1130C209F93AF93BF93EF93FF93CF93DF93CDB78E
S1130C30DEB72F97DEBFCDBF8AB18F778AB98CB16B
S1130C408093EC018136E9F028F490ED980F95300B
S1130C50F0F049C0893709F43BC08A3709F43EC033
S1130C60883709F040C02EC0AE01445F5F4FBE011B
S1130C706F5F7F4FC801E8DEC8013DDE0F5F1F4F85
S1130C8002C000E010E00530110574F32CC090E0C0
S1130C90C097AADF8091EC0190E0C09719DF00E0D3
S1130CA010E00CC0AE01445F5F4FBE016F5F7F4F29
S1130CB0C801CADEC8011FDE0F5F1F4F05301105D2
S1130CC08CF311C0E5E6F0E08081816080830BC085
S1130CD0E5E6F0E080818260808305C0E5E6F0E02F
S1130CE08081846080838AB180688AB92F960FB628
S1130CF0F894DEBF0FBECDBFDF91CF91FF91EF918E
S1130D00BF91AF919F918F917F916F915F914F911F
S1130D103F912F911F910F910F900BBE0F900FBE1B
S1130D200F901F901895CF93DF9300D000D0CDB7CC
S1130D30DEB715DCE3DBCFDBB7DBD5DBEAD962DB7F
S1130D402FEF83ED90E3215080409040E1F700C005
S1130D500000E1E6F0E080818E7F808380818D7FDA
S1130D60808384B38B7F84BB85B3846085BB84B369
S1130D708D7F84BB85B3826085BB84B3816084BB73
S1130D8084B3877F84BB85B3886085BBE4E6F0E0E9
S1130D90808181608083808182608083808184609F
S1130DA080838081877F8083E5E6F0E080818860AE
S1130DB080832FEF81EE94E0215080409040E1F752
S1130DC000C00000789496DE2FEF81EE94E021506D
S1130DD080409040E1F700C000008091630083FDF3
S1130DE00BC0E5E6F0E080818E7F808380818D7F7B
S1130DF0808380818B7F80838091CC018823B1F0B4
S1130E0099990DC08ADB81E0809300012FEF83ED77
S1130E1090E3215080409040E1F700C000008FE94A
S1130E209FE00197F1F700C00000D7CF92DB882341
S1130E3009F474C0CE010196ADDC8091CA01882307
S1130E40D9F0CE01019631DD8C01059784F48DEB48
S1130E5091E0F1DA21E1209FC001219F900D11243E
S1130E608D509E4FE8DA8AE0E2DA8ADB03C0CE01D5
S1130E70019671DE1092CA0185B3816085BB8091B1
S1130E800001811110C08091CB01882361F0109280
S1130E90CB019FEF29E688E1915020408040E1F7A3
S1130EA000C0000088DB99990FC06ADB81E0809361
S1130EB0CB01809300019FEF23EC89E09150204007
S1130EC08040E1F700C0000081E090E0F0DA8C3B64
S1130ED09240BCF48091E6019091E70101969093D1
S1130EE0E7018093E6018091E6019091E701039781
S1130EF040F08DE091E09FDA15DB1092E70110924B
S1130F00E60180E090E0D3DA8B3F91050CF465CFE5
S1130F1086EC91E090DA34DB05DB5FCF85B38E7F1E
S1130F2085BB5BCF0F931F93CF93DF93CDB7DEB712
S1130F302E970FB6F894DEBF0FBECDBF0D891E8964
S1130F4086E08C831A8309838FEF9FE79E838D83CA
S1130F50AE01475E5F4F6F89788DCE01019610D048
S1130F60EF81F885E00FF11F10822E960FB6F894EA
S1130F70DEBF0FBECDBFDF91CF911F910F910895BA
S1130F802F923F924F925F926F927F928F929F9295
S1130F90AF92BF92CF92DF92EF92FF920F931F9383
S1130FA0CF93DF93CDB7DEB72B970FB6F894DEBFA0
S1130FB00FBECDBF6C017B018A01FC011782168232
S1130FC0838181FFBFC1CE0101963C01F60193816B
S1130FD0F70193FD859193FF81917F01882309F4A3
S1130FE0ADC1853239F493FD859193FF81917F01E1
S1130FF0853221F4B60190E0D6D1E8CF912C212C92
S1131000312CFFE1F315D8F08B3279F038F48032CB
S113101079F08332A1F4232D20611DC08D3261F05B
S1131020803369F4232D216016C0832D8260382E0D
S1131030E32DE4603E2E2AC0F32DF8601DC037FC7A
S11310402DC020ED280F2A3040F08E32B9F436FC42
S113105075C1232D2064322E19C036FE06C08AE0E5
S1131060989E200D1124922E11C0EAE02E9E200D90
S11310701124222EF32DF0623F2E08C08C3621F469
S1131080832D8068382E02C0883641F4F70193FD21
S1131090859193FF81917F018111B3CF982F9F7D1B
S11310A09554933028F40C5F1F4F9FE399830DC030
S11310B0833631F0833771F0833509F055C020C091
S11310C0F801808189830E5F1F4F88248394912CBB
S11310D0530112C02801F2E04F0E511CF801A08008
S11310E0B18036FE03C0692D70E002C06FEF7FEF60
S11310F0C5014ED14C018201F32DFF773F2E15C05F
S1131100280122E0420E511CF801A080B18036FE75
S113111003C0692D70E002C06FEF7FEFC5012DD1D0
S11311204C01F32DF0683F2E820133FC19C0822D4F
S113113090E088169906A0F4B60180E290E033D1DD
S11311402A94F5CFF50137FC859137FE81915F0133
S1131150B60190E028D121102A9421E0821A910846
S11311608114910479F7E1C0843611F0893639F598
S1131170F80137FE07C060817181828193810C5F21
S11311801F4F08C060817181072E000C880B990BDA
S11311900E5F1F4FF32DFF763F2E97FF09C09095EA
S11311A08095709561957F4F8F4F9F4FF0683F2ECC
S11311B02AE030E0A30133D1882E861844C0853755
S11311C031F4232D2F7EB22E2AE030E025C0932D5A
S11311D0997FB92E8F36C1F018F4883579F0AEC0F6
S11311E0803719F0883721F0A9C0E92FE061BE2EBD
S11311F0B4FE0DC0FB2DF460BF2E09C034FE0AC03E
S1131200292F2660B22E06C028E030E005C020E178
S113121030E002C020E132E0F801B7FE07C060818F
S11312207181828193810C5F1F4F06C0608171813F
S113123080E090E00E5F1F4FA301F1D0882E861846
S1131240FB2DFF773F2E36FE0DC0232D2E7FA22EC1
S1131250891458F434FE0BC032FC09C0832D8E7EF1
S1131260A82E05C0B82CA32C03C0B82C01C0B92CDF
S1131270A4FE0FC0FE01E80DF11D8081803321F42E
S11312809A2D997EA92E09C0A2FE06C0B394B394E8
S113129004C08A2D867809F0B394A3FC10C0A0FE84
S11312A006C0B21480F4280C922C9B180DC0B21402
S11312B058F4B60180E290E076D0B394F8CFB2143B
S11312C018F42B1802C0982C212CA4FE0FC0B601D0
S11312D080E390E068D0A2FE16C0A1FC03C088E7BA
S11312E090E002C088E590E0B6010CC08A2D8678B3
S11312F051F0A1FE02C08BE201C080E2A7FC8DE2A6
S1131300B60190E050D0891430F4B60180E390E047
S11313104AD09A94F8CF8A94F301E80DF11D8081A4
S1131320B60190E040D08110F6CF222009F44ECED1
S1131330B60180E290E037D02A94F7CFF601868197
S1131340978102C08FEF9FEF2B960FB6F894DEBF04
S11313500FBECDBFDF91CF911F910F91FF90EF9002
S1131360DF90CF90BF90AF909F908F907F906F90C1
S11313705F904F903F902F900895FC01059061502D
S113138070400110D8F7809590958E0F9F1F089597
S1131390FC016150704001900110D8F78095909540
S11313A08E0F9F1F08950F931F93CF93DF93FB011D
S11313B0238121FD03C08FEF9FEF2CC022FF16C0B5
S11313C046815781248135814217530744F4A08113
S11313D0B1819D012F5F3F4F318320838C93268100
S11313E037812F5F3F4F3783268314C08B01EC0175
S11313F0FB010084F185E02D0995892BE1F6D801E4
S113140016968D919C911797019617969C938E939F
S11314101697CE01DF91CF911F910F910895FA0194
S1131420AA27283051F1203181F1E8946F936E7F1F
S11314306E5F7F4F8F4F9F4FAF4FB1E03ED0B4E010
S11314403CD0670F781F891F9A1FA11D680F791F51
S11314508A1F911DA11D6A0F711D811D911DA11D62
S113146020D009F468943F912AE0269F1124301972
S1131470305D3193DEF6CF010895462F4770405D0D
S11314804193B3E00FD0C9F7F6CF462F4F70405DBC
S11314904A3318F0495D31FD4052419302D0A9F717
S11314A0EACFB4E0A6959795879577956795BA9511
S11314B0C9F700976105710508959B01AC010A2ED7
S11314C006945795479537952795BA95C9F7620FAE
S11314D0731F841F951FA01D0895E199FECF9FBB24
S11314E08EBBE09A99278DB30895262FE199FECFFC
S11314F09FBB8EBBE09A01970DB2021631F02DBB53
S11315000FB6F894E29AE19A0FBE0895F894FFCFCB
S1131510012573203A2025730043616C6C3131320C
S113152000506C6561736520636865636B20746843
S11315306520646F6F7200257825783A25782578C0
S11315403A257825783A25782578005468657265B7
S113155020617265206E6F206D61746368696E67C7
S11315602063617264732E0A0025642C25732C2574
S11315707825782578257825782578257825782C78
S113158000506C6561736520656E746572207468C3
S113159065206E616D650A000A726567697374720D
S11315A06174696F6E20636F6D706C65746564003F
S11315B0596F752063616E206E6F206C6F6E676566
S11315C0722072656769737465722E0A0057656CC0
S10D15D0636F6D652C0031313900A2
S9030000FC
